{
  "address": "0x044ede91eFc037Ee96C1c500426F457C9a688480",
  "abi": [
    {
      "inputs": [
        {
          "internalType": "address",
          "name": "_proxy",
          "type": "address"
        }
      ],
      "stateMutability": "nonpayable",
      "type": "constructor"
    },
    {
      "anonymous": false,
      "inputs": [
        {
          "indexed": true,
          "internalType": "address",
          "name": "previousOwner",
          "type": "address"
        },
        {
          "indexed": true,
          "internalType": "address",
          "name": "newOwner",
          "type": "address"
        }
      ],
      "name": "OwnershipTransferred",
      "type": "event"
    },
    {
      "inputs": [
        {
          "internalType": "string",
          "name": "_name",
          "type": "string"
        },
        {
          "internalType": "string",
          "name": "_symbol",
          "type": "string"
        },
        {
          "internalType": "string",
          "name": "version",
          "type": "string"
        },
        {
          "internalType": "string",
          "name": "_uri",
          "type": "string"
        },
        {
          "internalType": "bytes32",
          "name": "_root",
          "type": "bytes32"
        },
        {
          "internalType": "uint256",
          "name": "_mintLimit",
          "type": "uint256"
        },
        {
          "internalType": "uint256",
          "name": "initialTokenId",
          "type": "uint256"
        },
        {
          "internalType": "uint256",
          "name": "_addIncrement",
          "type": "uint256"
        },
        {
          "internalType": "uint256",
          "name": "_reduceIncrement",
          "type": "uint256"
        }
      ],
      "name": "createDrop",
      "outputs": [
        {
          "internalType": "address",
          "name": "",
          "type": "address"
        }
      ],
      "stateMutability": "payable",
      "type": "function"
    },
    {
      "inputs": [],
      "name": "owner",
      "outputs": [
        {
          "internalType": "address",
          "name": "",
          "type": "address"
        }
      ],
      "stateMutability": "view",
      "type": "function"
    },
    {
      "inputs": [],
      "name": "proxy",
      "outputs": [
        {
          "internalType": "address",
          "name": "",
          "type": "address"
        }
      ],
      "stateMutability": "view",
      "type": "function"
    },
    {
      "inputs": [],
      "name": "renounceOwnership",
      "outputs": [],
      "stateMutability": "nonpayable",
      "type": "function"
    },
    {
      "inputs": [
        {
          "internalType": "address",
          "name": "newOwner",
          "type": "address"
        }
      ],
      "name": "transferOwnership",
      "outputs": [],
      "stateMutability": "nonpayable",
      "type": "function"
    },
    {
      "inputs": [],
      "name": "withdrawFees",
      "outputs": [],
      "stateMutability": "nonpayable",
      "type": "function"
    }
  ],
  "transactionHash": "0x5427acfbc69536ace45821ab92045bae7d375ae6c1a13cee39eb386167ccd769",
  "args": [
    "0x3e646aCfDaa901239A72f86a79bf1aE93B2596ee"
  ],
  "numDeployments": 1,
  "solcInputHash": "607cbdcd84f97de7dd3ff28f40a6d48c",
  "bytecode": "0x60806040523480156200001157600080fd5b5060405162005081380380620050818339818101604052810190620000379190620001d5565b620000576200004b6200009f60201b60201c565b620000a760201b60201c565b80600160006101000a81548173ffffffffffffffffffffffffffffffffffffffff021916908373ffffffffffffffffffffffffffffffffffffffff1602179055505062000207565b600033905090565b60008060009054906101000a900473ffffffffffffffffffffffffffffffffffffffff169050816000806101000a81548173ffffffffffffffffffffffffffffffffffffffff021916908373ffffffffffffffffffffffffffffffffffffffff1602179055508173ffffffffffffffffffffffffffffffffffffffff168173ffffffffffffffffffffffffffffffffffffffff167f8be0079c531659141344cd1fd0a4f28419497f9722a3daafe3b4186f6b6457e060405160405180910390a35050565b600080fd5b600073ffffffffffffffffffffffffffffffffffffffff82169050919050565b60006200019d8262000170565b9050919050565b620001af8162000190565b8114620001bb57600080fd5b50565b600081519050620001cf81620001a4565b92915050565b600060208284031215620001ee57620001ed6200016b565b5b6000620001fe84828501620001be565b91505092915050565b614e6a80620002176000396000f3fe6080604052600436106200005c5760003560e01c8063476343ee1462000061578063715018a6146200007b5780638da5cb5b1462000095578063c796a67814620000c5578063ec55688914620000fb578063f2fde38b146200012b575b600080fd5b3480156200006e57600080fd5b506200007962000159565b005b3480156200008857600080fd5b506200009362000222565b005b348015620000a257600080fd5b50620000ad6200023a565b604051620000bc9190620005aa565b60405180910390f35b620000e36004803603810190620000dd9190620007b3565b62000263565b604051620000f29190620005aa565b60405180910390f35b3480156200010857600080fd5b506200011362000356565b604051620001229190620005aa565b60405180910390f35b3480156200013857600080fd5b506200015760048036038101906200015191906200093f565b6200037c565b005b6200016362000406565b60006200016f6200023a565b73ffffffffffffffffffffffffffffffffffffffff16476040516200019490620009a6565b60006040518083038185875af1925050503d8060008114620001d3576040519150601f19603f3d011682016040523d82523d6000602084013e620001d8565b606091505b50509050806200021f576040517f08c379a0000000000000000000000000000000000000000000000000000000008152600401620002169062000a1e565b60405180910390fd5b50565b6200022c62000406565b6200023860006200048b565b565b60008060009054906101000a900473ffffffffffffffffffffffffffffffffffffffff16905090565b6000600160009054906101000a900473ffffffffffffffffffffffffffffffffffffffff1673ffffffffffffffffffffffffffffffffffffffff163373ffffffffffffffffffffffffffffffffffffffff1614620002f8576040517f08c379a0000000000000000000000000000000000000000000000000000000008152600401620002ef9062000ab6565b60405180910390fd5b60008a8a8a8a8a8a8a8a8a604051620003119062000557565b620003259998979695949392919062000b72565b604051809103906000f08015801562000342573d6000803e3d6000fd5b509050809150509998505050505050505050565b600160009054906101000a900473ffffffffffffffffffffffffffffffffffffffff1681565b6200038662000406565b600073ffffffffffffffffffffffffffffffffffffffff168173ffffffffffffffffffffffffffffffffffffffff1603620003f8576040517f08c379a0000000000000000000000000000000000000000000000000000000008152600401620003ef9062000ca3565b60405180910390fd5b62000403816200048b565b50565b620004106200054f565b73ffffffffffffffffffffffffffffffffffffffff16620004306200023a565b73ffffffffffffffffffffffffffffffffffffffff161462000489576040517f08c379a0000000000000000000000000000000000000000000000000000000008152600401620004809062000d15565b60405180910390fd5b565b60008060009054906101000a900473ffffffffffffffffffffffffffffffffffffffff169050816000806101000a81548173ffffffffffffffffffffffffffffffffffffffff021916908373ffffffffffffffffffffffffffffffffffffffff1602179055508173ffffffffffffffffffffffffffffffffffffffff168173ffffffffffffffffffffffffffffffffffffffff167f8be0079c531659141344cd1fd0a4f28419497f9722a3daafe3b4186f6b6457e060405160405180910390a35050565b600033905090565b6140fd8062000d3883390190565b600073ffffffffffffffffffffffffffffffffffffffff82169050919050565b6000620005928262000565565b9050919050565b620005a48162000585565b82525050565b6000602082019050620005c1600083018462000599565b92915050565b6000604051905090565b600080fd5b600080fd5b600080fd5b600080fd5b6000601f19601f8301169050919050565b7f4e487b7100000000000000000000000000000000000000000000000000000000600052604160045260246000fd5b6200063082620005e5565b810181811067ffffffffffffffff82111715620006525762000651620005f6565b5b80604052505050565b600062000667620005c7565b905062000675828262000625565b919050565b600067ffffffffffffffff821115620006985762000697620005f6565b5b620006a382620005e5565b9050602081019050919050565b82818337600083830152505050565b6000620006d6620006d0846200067a565b6200065b565b905082815260208101848484011115620006f557620006f4620005e0565b5b62000702848285620006b0565b509392505050565b600082601f830112620007225762000721620005db565b5b813562000734848260208601620006bf565b91505092915050565b6000819050919050565b62000752816200073d565b81146200075e57600080fd5b50565b600081359050620007728162000747565b92915050565b6000819050919050565b6200078d8162000778565b81146200079957600080fd5b50565b600081359050620007ad8162000782565b92915050565b60008060008060008060008060006101208a8c031215620007d957620007d8620005d1565b5b60008a013567ffffffffffffffff811115620007fa57620007f9620005d6565b5b620008088c828d016200070a565b99505060208a013567ffffffffffffffff8111156200082c576200082b620005d6565b5b6200083a8c828d016200070a565b98505060408a013567ffffffffffffffff8111156200085e576200085d620005d6565b5b6200086c8c828d016200070a565b97505060608a013567ffffffffffffffff81111562000890576200088f620005d6565b5b6200089e8c828d016200070a565b9650506080620008b18c828d0162000761565b95505060a0620008c48c828d016200079c565b94505060c0620008d78c828d016200079c565b93505060e0620008ea8c828d016200079c565b925050610100620008fe8c828d016200079c565b9150509295985092959850929598565b620009198162000585565b81146200092557600080fd5b50565b60008135905062000939816200090e565b92915050565b600060208284031215620009585762000957620005d1565b5b6000620009688482850162000928565b91505092915050565b600081905092915050565b50565b60006200098e60008362000971565b91506200099b826200097c565b600082019050919050565b6000620009b3826200097f565b9150819050919050565b600082825260208201905092915050565b7f4572726f72206f636375726564207768696c65207472616e7366657200000000600082015250565b600062000a06601c83620009bd565b915062000a1382620009ce565b602082019050919050565b6000602082019050818103600083015262000a3981620009f7565b9050919050565b7f4f6e6c792050726f787920436f6e74726163742063616e2063616c6c2074686960008201527f7300000000000000000000000000000000000000000000000000000000000000602082015250565b600062000a9e602183620009bd565b915062000aab8262000a40565b604082019050919050565b6000602082019050818103600083015262000ad18162000a8f565b9050919050565b600081519050919050565b60005b8381101562000b0357808201518184015260208101905062000ae6565b60008484015250505050565b600062000b1c8262000ad8565b62000b288185620009bd565b935062000b3a81856020860162000ae3565b62000b4581620005e5565b840191505092915050565b62000b5b816200073d565b82525050565b62000b6c8162000778565b82525050565b600061012082019050818103600083015262000b8f818c62000b0f565b9050818103602083015262000ba5818b62000b0f565b9050818103604083015262000bbb818a62000b0f565b9050818103606083015262000bd1818962000b0f565b905062000be2608083018862000b50565b62000bf160a083018762000b61565b62000c0060c083018662000b61565b62000c0f60e083018562000b61565b62000c1f61010083018462000b61565b9a9950505050505050505050565b7f4f776e61626c653a206e6577206f776e657220697320746865207a65726f206160008201527f6464726573730000000000000000000000000000000000000000000000000000602082015250565b600062000c8b602683620009bd565b915062000c988262000c2d565b604082019050919050565b6000602082019050818103600083015262000cbe8162000c7c565b9050919050565b7f4f776e61626c653a2063616c6c6572206973206e6f7420746865206f776e6572600082015250565b600062000cfd602083620009bd565b915062000d0a8262000cc5565b602082019050919050565b6000602082019050818103600083015262000d308162000cee565b905091905056fe6101406040523480156200001257600080fd5b50604051620040fd380380620040fd8339818101604052810190620000389190620003ee565b88888888888888868686828160008280519060200120905060008280519060200120905060007f8b73c3c69bb8fe3d512ecc4cf759cc79239f7b179b0ffacaa9a75d522b39400f90508260e081815250508161010081815250504660a08181525050620000ad818484620001a960201b60201c565b608081815250503073ffffffffffffffffffffffffffffffffffffffff1660c08173ffffffffffffffffffffffffffffffffffffffff1681525050806101208181525050505050505082600190816200010791906200078a565b5081600290816200011991906200078a565b5050505083600690816200012e91906200078a565b508260088190555081600981905550806007819055505050505050505033600b60006101000a81548173ffffffffffffffffffffffffffffffffffffffff021916908373ffffffffffffffffffffffffffffffffffffffff16021790555081600d8190555080600e8190555050505050505050505062000935565b60008383834630604051602001620001c6959493929190620008d8565b6040516020818303038152906040528051906020012090509392505050565b6000604051905090565b600080fd5b600080fd5b600080fd5b600080fd5b6000601f19601f8301169050919050565b7f4e487b7100000000000000000000000000000000000000000000000000000000600052604160045260246000fd5b6200024e8262000203565b810181811067ffffffffffffffff8211171562000270576200026f62000214565b5b80604052505050565b600062000285620001e5565b905062000293828262000243565b919050565b600067ffffffffffffffff821115620002b657620002b562000214565b5b620002c18262000203565b9050602081019050919050565b60005b83811015620002ee578082015181840152602081019050620002d1565b60008484015250505050565b6000620003116200030b8462000298565b62000279565b90508281526020810184848401111562000330576200032f620001fe565b5b6200033d848285620002ce565b509392505050565b600082601f8301126200035d576200035c620001f9565b5b81516200036f848260208601620002fa565b91505092915050565b6000819050919050565b6200038d8162000378565b81146200039957600080fd5b50565b600081519050620003ad8162000382565b92915050565b6000819050919050565b620003c881620003b3565b8114620003d457600080fd5b50565b600081519050620003e881620003bd565b92915050565b60008060008060008060008060006101208a8c031215620004145762000413620001ef565b5b60008a015167ffffffffffffffff811115620004355762000434620001f4565b5b620004438c828d0162000345565b99505060208a015167ffffffffffffffff811115620004675762000466620001f4565b5b620004758c828d0162000345565b98505060408a015167ffffffffffffffff811115620004995762000498620001f4565b5b620004a78c828d0162000345565b97505060608a015167ffffffffffffffff811115620004cb57620004ca620001f4565b5b620004d98c828d0162000345565b9650506080620004ec8c828d016200039c565b95505060a0620004ff8c828d01620003d7565b94505060c0620005128c828d01620003d7565b93505060e0620005258c828d01620003d7565b925050610100620005398c828d01620003d7565b9150509295985092959850929598565b600081519050919050565b7f4e487b7100000000000000000000000000000000000000000000000000000000600052602260045260246000fd5b600060028204905060018216806200059c57607f821691505b602082108103620005b257620005b162000554565b5b50919050565b60008190508160005260206000209050919050565b60006020601f8301049050919050565b600082821b905092915050565b6000600883026200061c7fffffffffffffffffffffffffffffffffffffffffffffffffffffffffffffffff82620005dd565b620006288683620005dd565b95508019841693508086168417925050509392505050565b6000819050919050565b60006200066b620006656200065f84620003b3565b62000640565b620003b3565b9050919050565b6000819050919050565b62000687836200064a565b6200069f620006968262000672565b848454620005ea565b825550505050565b600090565b620006b6620006a7565b620006c38184846200067c565b505050565b5b81811015620006eb57620006df600082620006ac565b600181019050620006c9565b5050565b601f8211156200073a576200070481620005b8565b6200070f84620005cd565b810160208510156200071f578190505b620007376200072e85620005cd565b830182620006c8565b50505b505050565b600082821c905092915050565b60006200075f600019846008026200073f565b1980831691505092915050565b60006200077a83836200074c565b9150826002028217905092915050565b620007958262000549565b67ffffffffffffffff811115620007b157620007b062000214565b5b620007bd825462000583565b620007ca828285620006ef565b600060209050601f831160018114620008025760008415620007ed578287015190505b620007f985826200076c565b86555062000869565b601f1984166200081286620005b8565b60005b828110156200083c5784890151825560018201915060208501945060208101905062000815565b868310156200085c578489015162000858601f8916826200074c565b8355505b6001600288020188555050505b505050505050565b6200087c8162000378565b82525050565b6200088d81620003b3565b82525050565b600073ffffffffffffffffffffffffffffffffffffffff82169050919050565b6000620008c08262000893565b9050919050565b620008d281620008b3565b82525050565b600060a082019050620008ef600083018862000871565b620008fe602083018762000871565b6200090d604083018662000871565b6200091c606083018562000882565b6200092b6080830184620008c7565b9695505050505050565b60805160a05160c05160e0516101005161012051613778620009856000396000611ff3015260006120350152600061201401526000611f4901526000611f9f01526000611fc801526137786000f3fe608060405234801561001057600080fd5b506004361061014d5760003560e01c8063a3947803116100c3578063d179e3d01161007c578063d179e3d0146103c8578063ded86d68146103e4578063eac989f814610400578063ebf0c7171461041e578063ec64948e1461043c578063ed9fa61b1461046c5761014d565b8063a3947803146102ce578063ae8da89c146102fe578063af2f81ed1461032e578063b035e8001461034c578063b77a147b1461037c578063c87b56dd146103985761014d565b80636352211e116101155780636352211e146101f857806370a082311461022857806374a8f103146102585780637d0ef6131461027457806395d89b4114610292578063996517cf146102b05761014d565b806301ffc9a71461015257806306fdde0314610182578063095ea7b3146101a057806317d70f7c146101bc5780631d143848146101da575b600080fd5b61016c600480360381019061016791906122ff565b610488565b6040516101799190612347565b60405180910390f35b61018a61056a565b60405161019791906123f2565b60405180910390f35b6101ba60048036038101906101b591906124a8565b6105fc565b005b6101c4610757565b6040516101d191906124f7565b60405180910390f35b6101e261075d565b6040516101ef9190612521565b60405180910390f35b610212600480360381019061020d919061253c565b610783565b60405161021f9190612521565b60405180910390f35b610242600480360381019061023d9190612569565b610834565b60405161024f91906124f7565b60405180910390f35b610272600480360381019061026d9190612569565b6108eb565b005b61027c610a1f565b60405161028991906124f7565b60405180910390f35b61029a610a25565b6040516102a791906123f2565b60405180910390f35b6102b8610ab7565b6040516102c591906124f7565b60405180910390f35b6102e860048036038101906102e39190612651565b610abd565b6040516102f591906124f7565b60405180910390f35b610318600480360381019061031391906124a8565b610bb1565b60405161032591906124f7565b60405180910390f35b610336610c0c565b60405161034391906124f7565b60405180910390f35b61036660048036038101906103619190612569565b610c12565b6040516103739190612733565b60405180910390f35b610396600480360381019061039191906128c2565b610c90565b005b6103b260048036038101906103ad919061253c565b610e69565b6040516103bf91906123f2565b60405180910390f35b6103e260048036038101906103dd919061253c565b610f56565b005b6103fe60048036038101906103f991906124a8565b610fec565b005b610408611298565b60405161041591906123f2565b60405180910390f35b610426611326565b604051610433919061291a565b60405180910390f35b61045660048036038101906104519190612651565b61132c565b60405161046391906124f7565b60405180910390f35b610486600480360381019061048191906124a8565b611360565b005b60007f5b5e139f000000000000000000000000000000000000000000000000000000007bffffffffffffffffffffffffffffffffffffffffffffffffffffffff1916827bffffffffffffffffffffffffffffffffffffffffffffffffffffffff1916148061055357507f8d7bac72000000000000000000000000000000000000000000000000000000007bffffffffffffffffffffffffffffffffffffffffffffffffffffffff1916827bffffffffffffffffffffffffffffffffffffffffffffffffffffffff1916145b806105635750610562826116c1565b5b9050919050565b60606001805461057990612964565b80601f01602080910402602001604051908101604052809291908181526020018280546105a590612964565b80156105f25780601f106105c7576101008083540402835291602001916105f2565b820191906000526020600020905b8154815290600101906020018083116105d557829003601f168201915b5050505050905090565b600b60009054906101000a900473ffffffffffffffffffffffffffffffffffffffff1673ffffffffffffffffffffffffffffffffffffffff163373ffffffffffffffffffffffffffffffffffffffff161461068c576040517f08c379a000000000000000000000000000000000000000000000000000000000815260040161068390612a07565b60405180910390fd5b604051806040016040528082815260200160011515815250600f60008473ffffffffffffffffffffffffffffffffffffffff1673ffffffffffffffffffffffffffffffffffffffff1681526020019081526020016000206000820151816000015560208201518160010160006101000a81548160ff0219169083151502179055509050508173ffffffffffffffffffffffffffffffffffffffff167f53ae258b2d6c1fdf56bc4dbdd5c07df4d7c07a3595b3ce653d7418f7c651c03c60405160405180910390a25050565b60075481565b600b60009054906101000a900473ffffffffffffffffffffffffffffffffffffffff1681565b6000806003600084815260200190815260200160002060009054906101000a900473ffffffffffffffffffffffffffffffffffffffff169050600073ffffffffffffffffffffffffffffffffffffffff168173ffffffffffffffffffffffffffffffffffffffff160361082b576040517f08c379a000000000000000000000000000000000000000000000000000000000815260040161082290612a73565b60405180910390fd5b80915050919050565b60008073ffffffffffffffffffffffffffffffffffffffff168273ffffffffffffffffffffffffffffffffffffffff16036108a4576040517f08c379a000000000000000000000000000000000000000000000000000000000815260040161089b90612b05565b60405180910390fd5b600560008373ffffffffffffffffffffffffffffffffffffffff1673ffffffffffffffffffffffffffffffffffffffff168152602001908152602001600020549050919050565b600b60009054906101000a900473ffffffffffffffffffffffffffffffffffffffff1673ffffffffffffffffffffffffffffffffffffffff163373ffffffffffffffffffffffffffffffffffffffff161461097b576040517f08c379a000000000000000000000000000000000000000000000000000000000815260040161097290612b71565b60405180910390fd5b600f60008273ffffffffffffffffffffffffffffffffffffffff1673ffffffffffffffffffffffffffffffffffffffff1681526020019081526020016000206000808201600090556001820160006101000a81549060ff021916905550508073ffffffffffffffffffffffffffffffffffffffff167fb6fa8b8bd5eab60f292eca876e3ef90722275b785309d84b1de113ce0b8c4e7460405160405180910390a250565b600e5481565b606060028054610a3490612964565b80601f0160208091040260200160405190810160405280929190818152602001828054610a6090612964565b8015610aad5780601f10610a8257610100808354040283529160200191610aad565b820191906000526020600020905b815481529060010190602001808311610a9057829003601f168201915b5050505050905090565b60095481565b60008573ffffffffffffffffffffffffffffffffffffffff163373ffffffffffffffffffffffffffffffffffffffff1603610b2d576040517f08c379a0000000000000000000000000000000000000000000000000000000008152600401610b2490612bdd565b60405180910390fd5b6000610b3d33888888888861172b565b9050610b8f87338389898080601f016020809104026020016040519081016040528093929190818152602001838380828437600081840152601f19601f82011690508083019250505050505050611835565b50610ba48160006119b090919063ffffffff16565b8091505095945050505050565b6000600c60008473ffffffffffffffffffffffffffffffffffffffff1673ffffffffffffffffffffffffffffffffffffffff168152602001908152602001600020600083815260200190815260200160002054905092915050565b600d5481565b610c1a61221a565b600f60008373ffffffffffffffffffffffffffffffffffffffff1673ffffffffffffffffffffffffffffffffffffffff168152602001908152602001600020604051806040016040529081600082015481526020016001820160009054906101000a900460ff1615151515815250509050919050565b610c99816119ee565b610cd8576040517f08c379a0000000000000000000000000000000000000000000000000000000008152600401610ccf90612c49565b60405180910390fd5b600954600a60003373ffffffffffffffffffffffffffffffffffffffff1673ffffffffffffffffffffffffffffffffffffffff1681526020019081526020016000205410610d5b576040517f08c379a0000000000000000000000000000000000000000000000000000000008152600401610d5290612cb5565b60405180910390fd5b6001600a60003373ffffffffffffffffffffffffffffffffffffffff1673ffffffffffffffffffffffffffffffffffffffff1681526020019081526020016000206000828254610dab9190612d04565b92505081905550600160076000828254610dc59190612d04565b92505081905550610e6560003360075460068054610de290612964565b80601f0160208091040260200160405190810160405280929190818152602001828054610e0e90612964565b8015610e5b5780601f10610e3057610100808354040283529160200191610e5b565b820191906000526020600020905b815481529060010190602001808311610e3e57829003601f168201915b5050505050611835565b5050565b6060610e7482611a2a565b610eb3576040517f08c379a0000000000000000000000000000000000000000000000000000000008152600401610eaa90612d84565b60405180910390fd5b600460008381526020019081526020016000208054610ed190612964565b80601f0160208091040260200160405190810160405280929190818152602001828054610efd90612964565b8015610f4a5780601f10610f1f57610100808354040283529160200191610f4a565b820191906000526020600020905b815481529060010190602001808311610f2d57829003601f168201915b50505050509050919050565b610f5f81610783565b73ffffffffffffffffffffffffffffffffffffffff163373ffffffffffffffffffffffffffffffffffffffff1614610fcc576040517f08c379a0000000000000000000000000000000000000000000000000000000008152600401610fc390612df0565b60405180910390fd5b610fe0816000611a9690919063ffffffff16565b610fe981611ad5565b50565b600f60003373ffffffffffffffffffffffffffffffffffffffff1673ffffffffffffffffffffffffffffffffffffffff16815260200190815260200160002060010160009054906101000a900460ff16801561108a575043600f60003373ffffffffffffffffffffffffffffffffffffffff1673ffffffffffffffffffffffffffffffffffffffff1681526020019081526020016000206000015410155b806110e25750600b60009054906101000a900473ffffffffffffffffffffffffffffffffffffffff1673ffffffffffffffffffffffffffffffffffffffff163373ffffffffffffffffffffffffffffffffffffffff16145b611121576040517f08c379a000000000000000000000000000000000000000000000000000000000815260040161111890612e5c565b60405180910390fd5b8173ffffffffffffffffffffffffffffffffffffffff1661114182610783565b73ffffffffffffffffffffffffffffffffffffffff1614611197576040517f08c379a000000000000000000000000000000000000000000000000000000000815260040161118e90612ec8565b60405180910390fd5b600d54600c60008473ffffffffffffffffffffffffffffffffffffffff1673ffffffffffffffffffffffffffffffffffffffff168152602001908152602001600020600083815260200190815260200160002060008282546111f99190612d04565b92505081905550600c60008373ffffffffffffffffffffffffffffffffffffffff1673ffffffffffffffffffffffffffffffffffffffff1681526020019081526020016000206000828152602001908152602001600020548273ffffffffffffffffffffffffffffffffffffffff167f669afbf3a015b9a38ee65be6aca13ca446e95d3d3bbc3d20588353c3cbc4bd1660405160405180910390a35050565b600680546112a590612964565b80601f01602080910402602001604051908101604052809291908181526020018280546112d190612964565b801561131e5780601f106112f35761010080835404028352916020019161131e565b820191906000526020600020905b81548152906001019060200180831161130157829003601f168201915b505050505081565b60085481565b60006040517feeb089b600000000000000000000000000000000000000000000000000000000815260040160405180910390fd5b600f60003373ffffffffffffffffffffffffffffffffffffffff1673ffffffffffffffffffffffffffffffffffffffff16815260200190815260200160002060010160009054906101000a900460ff1680156113fe575043600f60003373ffffffffffffffffffffffffffffffffffffffff1673ffffffffffffffffffffffffffffffffffffffff1681526020019081526020016000206000015410155b806114565750600b60009054906101000a900473ffffffffffffffffffffffffffffffffffffffff1673ffffffffffffffffffffffffffffffffffffffff163373ffffffffffffffffffffffffffffffffffffffff16145b611495576040517f08c379a000000000000000000000000000000000000000000000000000000000815260040161148c90612e5c565b60405180910390fd5b8173ffffffffffffffffffffffffffffffffffffffff166114b582610783565b73ffffffffffffffffffffffffffffffffffffffff161461150b576040517f08c379a000000000000000000000000000000000000000000000000000000000815260040161150290612ec8565b60405180910390fd5b600e54600c60008473ffffffffffffffffffffffffffffffffffffffff1673ffffffffffffffffffffffffffffffffffffffff168152602001908152602001600020600083815260200190815260200160002054106115d257600e54600c60008473ffffffffffffffffffffffffffffffffffffffff1673ffffffffffffffffffffffffffffffffffffffff168152602001908152602001600020600083815260200190815260200160002060008282546115c69190612ee8565b92505081905550611629565b6000600c60008473ffffffffffffffffffffffffffffffffffffffff1673ffffffffffffffffffffffffffffffffffffffff1681526020019081526020016000206000838152602001908152602001600020819055505b600c60008373ffffffffffffffffffffffffffffffffffffffff1673ffffffffffffffffffffffffffffffffffffffff1681526020019081526020016000206000828152602001908152602001600020548273ffffffffffffffffffffffffffffffffffffffff167f669afbf3a015b9a38ee65be6aca13ca446e95d3d3bbc3d20588353c3cbc4bd1660405160405180910390a35050565b60007f01ffc9a7000000000000000000000000000000000000000000000000000000007bffffffffffffffffffffffffffffffffffffffffffffffffffffffff1916827bffffffffffffffffffffffffffffffffffffffffffffffffffffffff1916149050919050565b60008061173a88888888611bee565b905060008160001c9050611793888387878080601f016020809104026020016040519081016040528093929190818152602001838380828437600081840152601f19601f82011690508083019250505050505050611c6b565b6117d2576040517f08c379a00000000000000000000000000000000000000000000000000000000081526004016117c990612f8e565b60405180910390fd5b6117e6816000611e3190919063ffffffff16565b15611826576040517f08c379a000000000000000000000000000000000000000000000000000000000815260040161181d90613020565b60405180910390fd5b80925050509695505050505050565b600061184083611a2a565b15611880576040517f08c379a00000000000000000000000000000000000000000000000000000000081526004016118779061308c565b60405180910390fd5b6001600560008673ffffffffffffffffffffffffffffffffffffffff1673ffffffffffffffffffffffffffffffffffffffff16815260200190815260200160002060008282546118d09190612d04565b92505081905550836003600085815260200190815260200160002060006101000a81548173ffffffffffffffffffffffffffffffffffffffff021916908373ffffffffffffffffffffffffffffffffffffffff160217905550816004600085815260200190815260200160002090816119499190613258565b50828473ffffffffffffffffffffffffffffffffffffffff168673ffffffffffffffffffffffffffffffffffffffff167fddf252ad1be2c89b69c2b068fc378daa952ba7f163c4a11628f55a4df523b3ef60405160405180910390a4829050949350505050565b6000600882901c9050600060ff83166001901b9050808460000160008481526020019081526020016000206000828254179250508190555050505050565b6000611a238260085433604051602001611a089190613372565b60405160208183030381529060405280519060200120611e6d565b9050919050565b60008073ffffffffffffffffffffffffffffffffffffffff166003600084815260200190815260200160002060009054906101000a900473ffffffffffffffffffffffffffffffffffffffff1673ffffffffffffffffffffffffffffffffffffffff1614159050919050565b6000600882901c9050600060ff83166001901b905080198460000160008481526020019081526020016000206000828254169250508190555050505050565b6000611ae082610783565b90506001600560008373ffffffffffffffffffffffffffffffffffffffff1673ffffffffffffffffffffffffffffffffffffffff1681526020019081526020016000206000828254611b329190612ee8565b925050819055506003600083815260200190815260200160002060006101000a81549073ffffffffffffffffffffffffffffffffffffffff0219169055600460008381526020019081526020016000206000611b8e9190612236565b81600073ffffffffffffffffffffffffffffffffffffffff168273ffffffffffffffffffffffffffffffffffffffff167fddf252ad1be2c89b69c2b068fc378daa952ba7f163c4a11628f55a4df523b3ef60405160405180910390a45050565b6000807fe76a195fbe43f0eaa611595069f780493db2202a1cc4b2d7d44b47069812998a86868686604051611c249291906133cc565b6040518091039020604051602001611c3f94939291906133e5565b604051602081830303815290604052805190602001209050611c6081611e84565b915050949350505050565b6000806000611c7a8585611e9e565b9150915060006004811115611c9257611c9161342a565b5b816004811115611ca557611ca461342a565b5b148015611cdd57508573ffffffffffffffffffffffffffffffffffffffff168273ffffffffffffffffffffffffffffffffffffffff16145b15611ced57600192505050611e2a565b6000808773ffffffffffffffffffffffffffffffffffffffff16631626ba7e60e01b8888604051602401611d229291906134ae565b604051602081830303815290604052907bffffffffffffffffffffffffffffffffffffffffffffffffffffffff19166020820180517bffffffffffffffffffffffffffffffffffffffffffffffffffffffff8381831617835250505050604051611d8c919061350f565b600060405180830381855afa9150503d8060008114611dc7576040519150601f19603f3d011682016040523d82523d6000602084013e611dcc565b606091505b5091509150818015611ddf575060208151145b8015611e235750631626ba7e60e01b7bffffffffffffffffffffffffffffffffffffffffffffffffffffffff191681806020019051810190611e21919061353b565b145b9450505050505b9392505050565b600080600883901c9050600060ff84166001901b9050600081866000016000858152602001908152602001600020541614159250505092915050565b600082611e7a8584611eef565b1490509392505050565b6000611e97611e91611f45565b8361205f565b9050919050565b6000806041835103611edf5760008060006020860151925060408601519150606086015160001a9050611ed387828585612092565b94509450505050611ee8565b60006002915091505b9250929050565b60008082905060005b8451811015611f3a57611f2582868381518110611f1857611f17613568565b5b602002602001015161219e565b91508080611f3290613597565b915050611ef8565b508091505092915050565b60007f000000000000000000000000000000000000000000000000000000000000000073ffffffffffffffffffffffffffffffffffffffff163073ffffffffffffffffffffffffffffffffffffffff16148015611fc157507f000000000000000000000000000000000000000000000000000000000000000046145b15611fee577f0000000000000000000000000000000000000000000000000000000000000000905061205c565b6120597f00000000000000000000000000000000000000000000000000000000000000007f00000000000000000000000000000000000000000000000000000000000000007f00000000000000000000000000000000000000000000000000000000000000006121c9565b90505b90565b60008282604051602001612074929190613657565b60405160208183030381529060405280519060200120905092915050565b6000807f7fffffffffffffffffffffffffffffff5d576e7357a4501ddfe92f46681b20a08360001c11156120cd576000600391509150612195565b601b8560ff16141580156120e55750601c8560ff1614155b156120f7576000600491509150612195565b60006001878787876040516000815260200160405260405161211c94939291906136aa565b6020604051602081039080840390855afa15801561213e573d6000803e3d6000fd5b505050602060405103519050600073ffffffffffffffffffffffffffffffffffffffff168173ffffffffffffffffffffffffffffffffffffffff160361218c57600060019250925050612195565b80600092509250505b94509492505050565b60008183106121b6576121b18284612203565b6121c1565b6121c08383612203565b5b905092915050565b600083838346306040516020016121e49594939291906136ef565b6040516020818303038152906040528051906020012090509392505050565b600082600052816020526040600020905092915050565b6040518060400160405280600081526020016000151581525090565b50805461224290612964565b6000825580601f106122545750612273565b601f0160209004906000526020600020908101906122729190612276565b5b50565b5b8082111561228f576000816000905550600101612277565b5090565b6000604051905090565b600080fd5b600080fd5b60007fffffffff0000000000000000000000000000000000000000000000000000000082169050919050565b6122dc816122a7565b81146122e757600080fd5b50565b6000813590506122f9816122d3565b92915050565b6000602082840312156123155761231461229d565b5b6000612323848285016122ea565b91505092915050565b60008115159050919050565b6123418161232c565b82525050565b600060208201905061235c6000830184612338565b92915050565b600081519050919050565b600082825260208201905092915050565b60005b8381101561239c578082015181840152602081019050612381565b60008484015250505050565b6000601f19601f8301169050919050565b60006123c482612362565b6123ce818561236d565b93506123de81856020860161237e565b6123e7816123a8565b840191505092915050565b6000602082019050818103600083015261240c81846123b9565b905092915050565b600073ffffffffffffffffffffffffffffffffffffffff82169050919050565b600061243f82612414565b9050919050565b61244f81612434565b811461245a57600080fd5b50565b60008135905061246c81612446565b92915050565b6000819050919050565b61248581612472565b811461249057600080fd5b50565b6000813590506124a28161247c565b92915050565b600080604083850312156124bf576124be61229d565b5b60006124cd8582860161245d565b92505060206124de85828601612493565b9150509250929050565b6124f181612472565b82525050565b600060208201905061250c60008301846124e8565b92915050565b61251b81612434565b82525050565b60006020820190506125366000830184612512565b92915050565b6000602082840312156125525761255161229d565b5b600061256084828501612493565b91505092915050565b60006020828403121561257f5761257e61229d565b5b600061258d8482850161245d565b91505092915050565b600080fd5b600080fd5b600080fd5b60008083601f8401126125bb576125ba612596565b5b8235905067ffffffffffffffff8111156125d8576125d761259b565b5b6020830191508360018202830111156125f4576125f36125a0565b5b9250929050565b60008083601f84011261261157612610612596565b5b8235905067ffffffffffffffff81111561262e5761262d61259b565b5b60208301915083600182028301111561264a576126496125a0565b5b9250929050565b60008060008060006060868803121561266d5761266c61229d565b5b600061267b8882890161245d565b955050602086013567ffffffffffffffff81111561269c5761269b6122a2565b5b6126a8888289016125a5565b9450945050604086013567ffffffffffffffff8111156126cb576126ca6122a2565b5b6126d7888289016125fb565b92509250509295509295909350565b6126ef81612472565b82525050565b6126fe8161232c565b82525050565b60408201600082015161271a60008501826126e6565b50602082015161272d60208501826126f5565b50505050565b60006040820190506127486000830184612704565b92915050565b7f4e487b7100000000000000000000000000000000000000000000000000000000600052604160045260246000fd5b612786826123a8565b810181811067ffffffffffffffff821117156127a5576127a461274e565b5b80604052505050565b60006127b8612293565b90506127c4828261277d565b919050565b600067ffffffffffffffff8211156127e4576127e361274e565b5b602082029050602081019050919050565b6000819050919050565b612808816127f5565b811461281357600080fd5b50565b600081359050612825816127ff565b92915050565b600061283e612839846127c9565b6127ae565b90508083825260208201905060208402830185811115612861576128606125a0565b5b835b8181101561288a57806128768882612816565b845260208401935050602081019050612863565b5050509392505050565b600082601f8301126128a9576128a8612596565b5b81356128b984826020860161282b565b91505092915050565b6000602082840312156128d8576128d761229d565b5b600082013567ffffffffffffffff8111156128f6576128f56122a2565b5b61290284828501612894565b91505092915050565b612914816127f5565b82525050565b600060208201905061292f600083018461290b565b92915050565b7f4e487b7100000000000000000000000000000000000000000000000000000000600052602260045260246000fd5b6000600282049050600182168061297c57607f821691505b60208210810361298f5761298e612935565b5b50919050565b7f4f6e6c79206973737565722063616e20417070726f766520416464726573736560008201527f7300000000000000000000000000000000000000000000000000000000000000602082015250565b60006129f160218361236d565b91506129fc82612995565b604082019050919050565b60006020820190508181036000830152612a20816129e4565b9050919050565b7f6f776e65724f663a20746f6b656e20646f65736e277420657869737400000000600082015250565b6000612a5d601c8361236d565b9150612a6882612a27565b602082019050919050565b60006020820190508181036000830152612a8c81612a50565b9050919050565b7f62616c616e63654f663a2061646472657373207a65726f206973206e6f74206160008201527f2076616c6964206f776e65720000000000000000000000000000000000000000602082015250565b6000612aef602c8361236d565b9150612afa82612a93565b604082019050919050565b60006020820190508181036000830152612b1e81612ae2565b9050919050565b7f4f6e6c79206973737565722063616e205265766f6b6520416464726573736573600082015250565b6000612b5b60208361236d565b9150612b6682612b25565b602082019050919050565b60006020820190508181036000830152612b8a81612b4e565b9050919050565b7f74616b653a2063616e6e6f742074616b652066726f6d2073656c660000000000600082015250565b6000612bc7601b8361236d565b9150612bd282612b91565b602082019050919050565b60006020820190508181036000830152612bf681612bba565b9050919050565b7f4e6f742056616c69642070726f6f6620666f7220416464726573730000000000600082015250565b6000612c33601b8361236d565b9150612c3e82612bfd565b602082019050919050565b60006020820190508181036000830152612c6281612c26565b9050919050565b7f546f6b656e204c696d6974205265616368656400000000000000000000000000600082015250565b6000612c9f60138361236d565b9150612caa82612c69565b602082019050919050565b60006020820190508181036000830152612cce81612c92565b9050919050565b7f4e487b7100000000000000000000000000000000000000000000000000000000600052601160045260246000fd5b6000612d0f82612472565b9150612d1a83612472565b9250828201905080821115612d3257612d31612cd5565b5b92915050565b7f746f6b656e5552493a20746f6b656e20646f65736e2774206578697374000000600082015250565b6000612d6e601d8361236d565b9150612d7982612d38565b602082019050919050565b60006020820190508181036000830152612d9d81612d61565b9050919050565b7f756e65717569703a2073656e646572206d757374206265206f776e6572000000600082015250565b6000612dda601d8361236d565b9150612de582612da4565b602082019050919050565b60006020820190508181036000830152612e0981612dcd565b9050919050565b7f4e6f7420417574686f7269736564206f72204578706972656400000000000000600082015250565b6000612e4660198361236d565b9150612e5182612e10565b602082019050919050565b60006020820190508181036000830152612e7581612e39565b9050919050565b7f4164647265737320646f65736e27742068617665205342540000000000000000600082015250565b6000612eb260188361236d565b9150612ebd82612e7c565b602082019050919050565b60006020820190508181036000830152612ee181612ea5565b9050919050565b6000612ef382612472565b9150612efe83612472565b9250828203905081811115612f1657612f15612cd5565b5b92915050565b7f5f73616665436865636b41677265656d656e743a20696e76616c69642073696760008201527f6e61747572650000000000000000000000000000000000000000000000000000602082015250565b6000612f7860268361236d565b9150612f8382612f1c565b604082019050919050565b60006020820190508181036000830152612fa781612f6b565b9050919050565b7f5f73616665436865636b41677265656d656e743a20616c72656164792075736560008201527f6400000000000000000000000000000000000000000000000000000000000000602082015250565b600061300a60218361236d565b915061301582612fae565b604082019050919050565b6000602082019050818103600083015261303981612ffd565b9050919050565b7f6d696e743a20746f6b656e494420657869737473000000000000000000000000600082015250565b600061307660148361236d565b915061308182613040565b602082019050919050565b600060208201905081810360008301526130a581613069565b9050919050565b60008190508160005260206000209050919050565b60006020601f8301049050919050565b600082821b905092915050565b60006008830261310e7fffffffffffffffffffffffffffffffffffffffffffffffffffffffffffffffff826130d1565b61311886836130d1565b95508019841693508086168417925050509392505050565b6000819050919050565b600061315561315061314b84612472565b613130565b612472565b9050919050565b6000819050919050565b61316f8361313a565b61318361317b8261315c565b8484546130de565b825550505050565b600090565b61319861318b565b6131a3818484613166565b505050565b5b818110156131c7576131bc600082613190565b6001810190506131a9565b5050565b601f82111561320c576131dd816130ac565b6131e6846130c1565b810160208510156131f5578190505b613209613201856130c1565b8301826131a8565b50505b505050565b600082821c905092915050565b600061322f60001984600802613211565b1980831691505092915050565b6000613248838361321e565b9150826002028217905092915050565b61326182612362565b67ffffffffffffffff81111561327a5761327961274e565b5b6132848254612964565b61328f8282856131cb565b600060209050601f8311600181146132c257600084156132b0578287015190505b6132ba858261323c565b865550613322565b601f1984166132d0866130ac565b60005b828110156132f8578489015182556001820191506020850194506020810190506132d3565b868310156133155784890151613311601f89168261321e565b8355505b6001600288020188555050505b505050505050565b60008160601b9050919050565b60006133428261332a565b9050919050565b600061335482613337565b9050919050565b61336c61336782612434565b613349565b82525050565b600061337e828461335b565b60148201915081905092915050565b600081905092915050565b82818337600083830152505050565b60006133b3838561338d565b93506133c0838584613398565b82840190509392505050565b60006133d98284866133a7565b91508190509392505050565b60006080820190506133fa600083018761290b565b6134076020830186612512565b6134146040830185612512565b613421606083018461290b565b95945050505050565b7f4e487b7100000000000000000000000000000000000000000000000000000000600052602160045260246000fd5b600081519050919050565b600082825260208201905092915050565b600061348082613459565b61348a8185613464565b935061349a81856020860161237e565b6134a3816123a8565b840191505092915050565b60006040820190506134c3600083018561290b565b81810360208301526134d58184613475565b90509392505050565b60006134e982613459565b6134f3818561338d565b935061350381856020860161237e565b80840191505092915050565b600061351b82846134de565b915081905092915050565b600081519050613535816127ff565b92915050565b6000602082840312156135515761355061229d565b5b600061355f84828501613526565b91505092915050565b7f4e487b7100000000000000000000000000000000000000000000000000000000600052603260045260246000fd5b60006135a282612472565b91507fffffffffffffffffffffffffffffffffffffffffffffffffffffffffffffffff82036135d4576135d3612cd5565b5b600182019050919050565b600081905092915050565b7f1901000000000000000000000000000000000000000000000000000000000000600082015250565b60006136206002836135df565b915061362b826135ea565b600282019050919050565b6000819050919050565b61365161364c826127f5565b613636565b82525050565b600061366282613613565b915061366e8285613640565b60208201915061367e8284613640565b6020820191508190509392505050565b600060ff82169050919050565b6136a48161368e565b82525050565b60006080820190506136bf600083018761290b565b6136cc602083018661369b565b6136d9604083018561290b565b6136e6606083018461290b565b95945050505050565b600060a082019050613704600083018861290b565b613711602083018761290b565b61371e604083018661290b565b61372b60608301856124e8565b6137386080830184612512565b969550505050505056fea2646970667358221220c9cfe509988b29ad6f47a9a09057ff65fa9b75cccd914eb3c608c0620138623a64736f6c63430008100033a264697066735822122050ac3a069050cf87a475162311b18a9c7d41be4d9e902f83342d4f7aa709ca1464736f6c63430008100033",
  "devdoc": {
    "kind": "dev",
    "methods": {
      "owner()": {
        "details": "Returns the address of the current owner."
      },
      "renounceOwnership()": {
        "details": "Leaves the contract without owner. It will not be possible to call `onlyOwner` functions anymore. Can only be called by the current owner. NOTE: Renouncing ownership will leave the contract without an owner, thereby removing any functionality that is only available to the owner."
      },
      "transferOwnership(address)": {
        "details": "Transfers ownership of the contract to a new account (`newOwner`). Can only be called by the current owner."
      }
    },
    "version": 1
  },
  "userdoc": {
    "kind": "user",
    "methods": {},
    "version": 1
  },
  "storageLayout": {
    "storage": [
      {
        "astId": 7,
        "contract": "contracts/ERC4973RepFactory.sol:ERC4973RepFactory",
        "label": "_owner",
        "offset": 0,
        "slot": "0",
        "type": "t_address"
      },
      {
        "astId": 2530,
        "contract": "contracts/ERC4973RepFactory.sol:ERC4973RepFactory",
        "label": "proxy",
        "offset": 0,
        "slot": "1",
        "type": "t_address"
      }
    ],
    "types": {
      "t_address": {
        "encoding": "inplace",
        "label": "address",
        "numberOfBytes": "20"
      }
    }
  }
}