{
  "address": "0x6C4f5e8B8D5BcCDF81fD5f105827dA52187e1dBA",
  "abi": [
    {
      "inputs": [
        {
          "internalType": "address",
          "name": "_proxy",
          "type": "address"
        }
      ],
      "stateMutability": "nonpayable",
      "type": "constructor"
    },
    {
      "anonymous": false,
      "inputs": [
        {
          "indexed": true,
          "internalType": "address",
          "name": "previousOwner",
          "type": "address"
        },
        {
          "indexed": true,
          "internalType": "address",
          "name": "newOwner",
          "type": "address"
        }
      ],
      "name": "OwnershipTransferred",
      "type": "event"
    },
    {
      "inputs": [
        {
          "internalType": "string",
          "name": "_name",
          "type": "string"
        },
        {
          "internalType": "string",
          "name": "_symbol",
          "type": "string"
        },
        {
          "internalType": "string",
          "name": "version",
          "type": "string"
        },
        {
          "internalType": "string",
          "name": "_uri",
          "type": "string"
        },
        {
          "internalType": "bytes32",
          "name": "_root",
          "type": "bytes32"
        },
        {
          "internalType": "uint256",
          "name": "_mintLimit",
          "type": "uint256"
        },
        {
          "internalType": "uint256",
          "name": "initialTokenId",
          "type": "uint256"
        }
      ],
      "name": "createDrop",
      "outputs": [
        {
          "internalType": "address",
          "name": "",
          "type": "address"
        }
      ],
      "stateMutability": "payable",
      "type": "function"
    },
    {
      "inputs": [],
      "name": "owner",
      "outputs": [
        {
          "internalType": "address",
          "name": "",
          "type": "address"
        }
      ],
      "stateMutability": "view",
      "type": "function"
    },
    {
      "inputs": [],
      "name": "proxy",
      "outputs": [
        {
          "internalType": "address",
          "name": "",
          "type": "address"
        }
      ],
      "stateMutability": "view",
      "type": "function"
    },
    {
      "inputs": [],
      "name": "renounceOwnership",
      "outputs": [],
      "stateMutability": "nonpayable",
      "type": "function"
    },
    {
      "inputs": [
        {
          "internalType": "address",
          "name": "newOwner",
          "type": "address"
        }
      ],
      "name": "transferOwnership",
      "outputs": [],
      "stateMutability": "nonpayable",
      "type": "function"
    },
    {
      "inputs": [],
      "name": "withdrawFees",
      "outputs": [],
      "stateMutability": "nonpayable",
      "type": "function"
    }
  ],
  "transactionHash": "0xdfc4d37c060c87d57850097b48253ae2b5a1aee61815b37acf391bf01f1a3b94",
  "args": [
    "0x3e646aCfDaa901239A72f86a79bf1aE93B2596ee"
  ],
  "numDeployments": 1,
  "solcInputHash": "607cbdcd84f97de7dd3ff28f40a6d48c",
  "bytecode": "0x60806040523480156200001157600080fd5b50604051620041d4380380620041d48339818101604052810190620000379190620001d5565b620000576200004b6200009f60201b60201c565b620000a760201b60201c565b80600160006101000a81548173ffffffffffffffffffffffffffffffffffffffff021916908373ffffffffffffffffffffffffffffffffffffffff1602179055505062000207565b600033905090565b60008060009054906101000a900473ffffffffffffffffffffffffffffffffffffffff169050816000806101000a81548173ffffffffffffffffffffffffffffffffffffffff021916908373ffffffffffffffffffffffffffffffffffffffff1602179055508173ffffffffffffffffffffffffffffffffffffffff168173ffffffffffffffffffffffffffffffffffffffff167f8be0079c531659141344cd1fd0a4f28419497f9722a3daafe3b4186f6b6457e060405160405180910390a35050565b600080fd5b600073ffffffffffffffffffffffffffffffffffffffff82169050919050565b60006200019d8262000170565b9050919050565b620001af8162000190565b8114620001bb57600080fd5b50565b600081519050620001cf81620001a4565b92915050565b600060208284031215620001ee57620001ed6200016b565b5b6000620001fe84828501620001be565b91505092915050565b613fbd80620002176000396000f3fe6080604052600436106200005c5760003560e01c8063476343ee1462000061578063697e1c3e146200007b578063715018a614620000b15780638da5cb5b14620000cb578063ec55688914620000fb578063f2fde38b146200012b575b600080fd5b3480156200006e57600080fd5b506200007962000159565b005b6200009960048036038101906200009391906200074b565b62000222565b604051620000a89190620008bf565b60405180910390f35b348015620000be57600080fd5b50620000c96200030f565b005b348015620000d857600080fd5b50620000e362000327565b604051620000f29190620008bf565b60405180910390f35b3480156200010857600080fd5b506200011362000350565b604051620001229190620008bf565b60405180910390f35b3480156200013857600080fd5b506200015760048036038101906200015191906200090d565b62000376565b005b6200016362000400565b60006200016f62000327565b73ffffffffffffffffffffffffffffffffffffffff1647604051620001949062000974565b60006040518083038185875af1925050503d8060008114620001d3576040519150601f19603f3d011682016040523d82523d6000602084013e620001d8565b606091505b50509050806200021f576040517f08c379a00000000000000000000000000000000000000000000000000000000081526004016200021690620009ec565b60405180910390fd5b50565b6000600160009054906101000a900473ffffffffffffffffffffffffffffffffffffffff1673ffffffffffffffffffffffffffffffffffffffff163373ffffffffffffffffffffffffffffffffffffffff1614620002b7576040517f08c379a0000000000000000000000000000000000000000000000000000000008152600401620002ae9062000a84565b60405180910390fd5b600088888888888888604051620002ce9062000551565b620002e0979695949392919062000b40565b604051809103906000f080158015620002fd573d6000803e3d6000fd5b50905080915050979650505050505050565b6200031962000400565b62000325600062000485565b565b60008060009054906101000a900473ffffffffffffffffffffffffffffffffffffffff16905090565b600160009054906101000a900473ffffffffffffffffffffffffffffffffffffffff1681565b6200038062000400565b600073ffffffffffffffffffffffffffffffffffffffff168173ffffffffffffffffffffffffffffffffffffffff1603620003f2576040517f08c379a0000000000000000000000000000000000000000000000000000000008152600401620003e99062000c4f565b60405180910390fd5b620003fd8162000485565b50565b6200040a62000549565b73ffffffffffffffffffffffffffffffffffffffff166200042a62000327565b73ffffffffffffffffffffffffffffffffffffffff161462000483576040517f08c379a00000000000000000000000000000000000000000000000000000000081526004016200047a9062000cc1565b60405180910390fd5b565b60008060009054906101000a900473ffffffffffffffffffffffffffffffffffffffff169050816000806101000a81548173ffffffffffffffffffffffffffffffffffffffff021916908373ffffffffffffffffffffffffffffffffffffffff1602179055508173ffffffffffffffffffffffffffffffffffffffff168173ffffffffffffffffffffffffffffffffffffffff167f8be0079c531659141344cd1fd0a4f28419497f9722a3daafe3b4186f6b6457e060405160405180910390a35050565b600033905090565b6132a48062000ce483390190565b6000604051905090565b600080fd5b600080fd5b600080fd5b600080fd5b6000601f19601f8301169050919050565b7f4e487b7100000000000000000000000000000000000000000000000000000000600052604160045260246000fd5b620005c8826200057d565b810181811067ffffffffffffffff82111715620005ea57620005e96200058e565b5b80604052505050565b6000620005ff6200055f565b90506200060d8282620005bd565b919050565b600067ffffffffffffffff82111562000630576200062f6200058e565b5b6200063b826200057d565b9050602081019050919050565b82818337600083830152505050565b60006200066e620006688462000612565b620005f3565b9050828152602081018484840111156200068d576200068c62000578565b5b6200069a84828562000648565b509392505050565b600082601f830112620006ba57620006b962000573565b5b8135620006cc84826020860162000657565b91505092915050565b6000819050919050565b620006ea81620006d5565b8114620006f657600080fd5b50565b6000813590506200070a81620006df565b92915050565b6000819050919050565b620007258162000710565b81146200073157600080fd5b50565b60008135905062000745816200071a565b92915050565b600080600080600080600060e0888a0312156200076d576200076c62000569565b5b600088013567ffffffffffffffff8111156200078e576200078d6200056e565b5b6200079c8a828b01620006a2565b975050602088013567ffffffffffffffff811115620007c057620007bf6200056e565b5b620007ce8a828b01620006a2565b965050604088013567ffffffffffffffff811115620007f257620007f16200056e565b5b620008008a828b01620006a2565b955050606088013567ffffffffffffffff8111156200082457620008236200056e565b5b620008328a828b01620006a2565b9450506080620008458a828b01620006f9565b93505060a0620008588a828b0162000734565b92505060c06200086b8a828b0162000734565b91505092959891949750929550565b600073ffffffffffffffffffffffffffffffffffffffff82169050919050565b6000620008a7826200087a565b9050919050565b620008b9816200089a565b82525050565b6000602082019050620008d66000830184620008ae565b92915050565b620008e7816200089a565b8114620008f357600080fd5b50565b6000813590506200090781620008dc565b92915050565b60006020828403121562000926576200092562000569565b5b60006200093684828501620008f6565b91505092915050565b600081905092915050565b50565b60006200095c6000836200093f565b915062000969826200094a565b600082019050919050565b600062000981826200094d565b9150819050919050565b600082825260208201905092915050565b7f4572726f72206f636375726564207768696c65207472616e7366657200000000600082015250565b6000620009d4601c836200098b565b9150620009e1826200099c565b602082019050919050565b6000602082019050818103600083015262000a0781620009c5565b9050919050565b7f4f6e6c792050726f787920436f6e74726163742063616e2063616c6c2074686960008201527f7300000000000000000000000000000000000000000000000000000000000000602082015250565b600062000a6c6021836200098b565b915062000a798262000a0e565b604082019050919050565b6000602082019050818103600083015262000a9f8162000a5d565b9050919050565b600081519050919050565b60005b8381101562000ad157808201518184015260208101905062000ab4565b60008484015250505050565b600062000aea8262000aa6565b62000af681856200098b565b935062000b0881856020860162000ab1565b62000b13816200057d565b840191505092915050565b62000b2981620006d5565b82525050565b62000b3a8162000710565b82525050565b600060e082019050818103600083015262000b5c818a62000add565b9050818103602083015262000b72818962000add565b9050818103604083015262000b88818862000add565b9050818103606083015262000b9e818762000add565b905062000baf608083018662000b1e565b62000bbe60a083018562000b2f565b62000bcd60c083018462000b2f565b98975050505050505050565b7f4f776e61626c653a206e6577206f776e657220697320746865207a65726f206160008201527f6464726573730000000000000000000000000000000000000000000000000000602082015250565b600062000c376026836200098b565b915062000c448262000bd9565b604082019050919050565b6000602082019050818103600083015262000c6a8162000c28565b9050919050565b7f4f776e61626c653a2063616c6c6572206973206e6f7420746865206f776e6572600082015250565b600062000ca96020836200098b565b915062000cb68262000c71565b602082019050919050565b6000602082019050818103600083015262000cdc8162000c9a565b905091905056fe6101406040523480156200001257600080fd5b50604051620032a4380380620032a483398181016040528101906200003891906200038f565b868686828160008280519060200120905060008280519060200120905060007f8b73c3c69bb8fe3d512ecc4cf759cc79239f7b179b0ffacaa9a75d522b39400f90508260e081815250508161010081815250504660a08181525050620000a68184846200014a60201b60201c565b608081815250503073ffffffffffffffffffffffffffffffffffffffff1660c08173ffffffffffffffffffffffffffffffffffffffff168152505080610120818152505050505050508260019081620001009190620006ff565b508160029081620001129190620006ff565b505050508360069081620001279190620006ff565b5082600881905550816009819055508060078190555050505050505050620008aa565b60008383834630604051602001620001679594939291906200084d565b6040516020818303038152906040528051906020012090509392505050565b6000604051905090565b600080fd5b600080fd5b600080fd5b600080fd5b6000601f19601f8301169050919050565b7f4e487b7100000000000000000000000000000000000000000000000000000000600052604160045260246000fd5b620001ef82620001a4565b810181811067ffffffffffffffff82111715620002115762000210620001b5565b5b80604052505050565b60006200022662000186565b9050620002348282620001e4565b919050565b600067ffffffffffffffff821115620002575762000256620001b5565b5b6200026282620001a4565b9050602081019050919050565b60005b838110156200028f57808201518184015260208101905062000272565b60008484015250505050565b6000620002b2620002ac8462000239565b6200021a565b905082815260208101848484011115620002d157620002d06200019f565b5b620002de8482856200026f565b509392505050565b600082601f830112620002fe57620002fd6200019a565b5b8151620003108482602086016200029b565b91505092915050565b6000819050919050565b6200032e8162000319565b81146200033a57600080fd5b50565b6000815190506200034e8162000323565b92915050565b6000819050919050565b620003698162000354565b81146200037557600080fd5b50565b60008151905062000389816200035e565b92915050565b600080600080600080600060e0888a031215620003b157620003b062000190565b5b600088015167ffffffffffffffff811115620003d257620003d162000195565b5b620003e08a828b01620002e6565b975050602088015167ffffffffffffffff81111562000404576200040362000195565b5b620004128a828b01620002e6565b965050604088015167ffffffffffffffff81111562000436576200043562000195565b5b620004448a828b01620002e6565b955050606088015167ffffffffffffffff81111562000468576200046762000195565b5b620004768a828b01620002e6565b9450506080620004898a828b016200033d565b93505060a06200049c8a828b0162000378565b92505060c0620004af8a828b0162000378565b91505092959891949750929550565b600081519050919050565b7f4e487b7100000000000000000000000000000000000000000000000000000000600052602260045260246000fd5b600060028204905060018216806200051157607f821691505b602082108103620005275762000526620004c9565b5b50919050565b60008190508160005260206000209050919050565b60006020601f8301049050919050565b600082821b905092915050565b600060088302620005917fffffffffffffffffffffffffffffffffffffffffffffffffffffffffffffffff8262000552565b6200059d868362000552565b95508019841693508086168417925050509392505050565b6000819050919050565b6000620005e0620005da620005d48462000354565b620005b5565b62000354565b9050919050565b6000819050919050565b620005fc83620005bf565b620006146200060b82620005e7565b8484546200055f565b825550505050565b600090565b6200062b6200061c565b62000638818484620005f1565b505050565b5b8181101562000660576200065460008262000621565b6001810190506200063e565b5050565b601f821115620006af5762000679816200052d565b620006848462000542565b8101602085101562000694578190505b620006ac620006a38562000542565b8301826200063d565b50505b505050565b600082821c905092915050565b6000620006d460001984600802620006b4565b1980831691505092915050565b6000620006ef8383620006c1565b9150826002028217905092915050565b6200070a82620004be565b67ffffffffffffffff811115620007265762000725620001b5565b5b620007328254620004f8565b6200073f82828562000664565b600060209050601f83116001811462000777576000841562000762578287015190505b6200076e8582620006e1565b865550620007de565b601f19841662000787866200052d565b60005b82811015620007b1578489015182556001820191506020850194506020810190506200078a565b86831015620007d15784890151620007cd601f891682620006c1565b8355505b6001600288020188555050505b505050505050565b620007f18162000319565b82525050565b620008028162000354565b82525050565b600073ffffffffffffffffffffffffffffffffffffffff82169050919050565b6000620008358262000808565b9050919050565b620008478162000828565b82525050565b600060a082019050620008646000830188620007e6565b620008736020830187620007e6565b620008826040830186620007e6565b620008916060830185620007f7565b620008a060808301846200083c565b9695505050505050565b60805160a05160c05160e05161010051610120516129aa620008fa60003960006114bf01526000611501015260006114e0015260006114150152600061146b0152600061149401526129aa6000f3fe608060405234801561001057600080fd5b50600436106100ea5760003560e01c8063a39478031161008c578063d179e3d011610066578063d179e3d014610273578063eac989f81461028f578063ebf0c717146102ad578063ec64948e146102cb576100ea565b8063a3947803146101f7578063b77a147b14610227578063c87b56dd14610243576100ea565b80636352211e116100c85780636352211e1461015b57806370a082311461018b57806395d89b41146101bb578063996517cf146101d9576100ea565b806301ffc9a7146100ef57806306fdde031461011f57806317d70f7c1461013d575b600080fd5b610109600480360381019061010491906117af565b6102fb565b60405161011691906117f7565b60405180910390f35b6101276103dd565b60405161013491906118a2565b60405180910390f35b61014561046f565b60405161015291906118dd565b60405180910390f35b61017560048036038101906101709190611924565b610475565b6040516101829190611992565b60405180910390f35b6101a560048036038101906101a091906119d9565b610526565b6040516101b291906118dd565b60405180910390f35b6101c36105dd565b6040516101d091906118a2565b60405180910390f35b6101e161066f565b6040516101ee91906118dd565b60405180910390f35b610211600480360381019061020c9190611ac1565b610675565b60405161021e91906118dd565b60405180910390f35b610241600480360381019061023c9190611cca565b610769565b005b61025d60048036038101906102589190611924565b610942565b60405161026a91906118a2565b60405180910390f35b61028d60048036038101906102889190611924565b610a2f565b005b610297610ac5565b6040516102a491906118a2565b60405180910390f35b6102b5610b53565b6040516102c29190611d22565b60405180910390f35b6102e560048036038101906102e09190611ac1565b610b59565b6040516102f291906118dd565b60405180910390f35b60007f5b5e139f000000000000000000000000000000000000000000000000000000007bffffffffffffffffffffffffffffffffffffffffffffffffffffffff1916827bffffffffffffffffffffffffffffffffffffffffffffffffffffffff191614806103c657507f8d7bac72000000000000000000000000000000000000000000000000000000007bffffffffffffffffffffffffffffffffffffffffffffffffffffffff1916827bffffffffffffffffffffffffffffffffffffffffffffffffffffffff1916145b806103d657506103d582610b8d565b5b9050919050565b6060600180546103ec90611d6c565b80601f016020809104026020016040519081016040528092919081815260200182805461041890611d6c565b80156104655780601f1061043a57610100808354040283529160200191610465565b820191906000526020600020905b81548152906001019060200180831161044857829003601f168201915b5050505050905090565b60075481565b6000806003600084815260200190815260200160002060009054906101000a900473ffffffffffffffffffffffffffffffffffffffff169050600073ffffffffffffffffffffffffffffffffffffffff168173ffffffffffffffffffffffffffffffffffffffff160361051d576040517f08c379a000000000000000000000000000000000000000000000000000000000815260040161051490611de9565b60405180910390fd5b80915050919050565b60008073ffffffffffffffffffffffffffffffffffffffff168273ffffffffffffffffffffffffffffffffffffffff1603610596576040517f08c379a000000000000000000000000000000000000000000000000000000000815260040161058d90611e7b565b60405180910390fd5b600560008373ffffffffffffffffffffffffffffffffffffffff1673ffffffffffffffffffffffffffffffffffffffff168152602001908152602001600020549050919050565b6060600280546105ec90611d6c565b80601f016020809104026020016040519081016040528092919081815260200182805461061890611d6c565b80156106655780601f1061063a57610100808354040283529160200191610665565b820191906000526020600020905b81548152906001019060200180831161064857829003601f168201915b5050505050905090565b60095481565b60008573ffffffffffffffffffffffffffffffffffffffff163373ffffffffffffffffffffffffffffffffffffffff16036106e5576040517f08c379a00000000000000000000000000000000000000000000000000000000081526004016106dc90611ee7565b60405180910390fd5b60006106f5338888888888610bf7565b905061074787338389898080601f016020809104026020016040519081016040528093929190818152602001838380828437600081840152601f19601f82011690508083019250505050505050610d01565b5061075c816000610e7c90919063ffffffff16565b8091505095945050505050565b61077281610eba565b6107b1576040517f08c379a00000000000000000000000000000000000000000000000000000000081526004016107a890611f53565b60405180910390fd5b600954600a60003373ffffffffffffffffffffffffffffffffffffffff1673ffffffffffffffffffffffffffffffffffffffff1681526020019081526020016000205410610834576040517f08c379a000000000000000000000000000000000000000000000000000000000815260040161082b90611fbf565b60405180910390fd5b6001600a60003373ffffffffffffffffffffffffffffffffffffffff1673ffffffffffffffffffffffffffffffffffffffff1681526020019081526020016000206000828254610884919061200e565b9250508190555060016007600082825461089e919061200e565b9250508190555061093e600033600754600680546108bb90611d6c565b80601f01602080910402602001604051908101604052809291908181526020018280546108e790611d6c565b80156109345780601f1061090957610100808354040283529160200191610934565b820191906000526020600020905b81548152906001019060200180831161091757829003601f168201915b5050505050610d01565b5050565b606061094d82610ef6565b61098c576040517f08c379a00000000000000000000000000000000000000000000000000000000081526004016109839061208e565b60405180910390fd5b6004600083815260200190815260200160002080546109aa90611d6c565b80601f01602080910402602001604051908101604052809291908181526020018280546109d690611d6c565b8015610a235780601f106109f857610100808354040283529160200191610a23565b820191906000526020600020905b815481529060010190602001808311610a0657829003601f168201915b50505050509050919050565b610a3881610475565b73ffffffffffffffffffffffffffffffffffffffff163373ffffffffffffffffffffffffffffffffffffffff1614610aa5576040517f08c379a0000000000000000000000000000000000000000000000000000000008152600401610a9c906120fa565b60405180910390fd5b610ab9816000610f6290919063ffffffff16565b610ac281610fa1565b50565b60068054610ad290611d6c565b80601f0160208091040260200160405190810160405280929190818152602001828054610afe90611d6c565b8015610b4b5780601f10610b2057610100808354040283529160200191610b4b565b820191906000526020600020905b815481529060010190602001808311610b2e57829003601f168201915b505050505081565b60085481565b60006040517feeb089b600000000000000000000000000000000000000000000000000000000815260040160405180910390fd5b60007f01ffc9a7000000000000000000000000000000000000000000000000000000007bffffffffffffffffffffffffffffffffffffffffffffffffffffffff1916827bffffffffffffffffffffffffffffffffffffffffffffffffffffffff1916149050919050565b600080610c06888888886110ba565b905060008160001c9050610c5f888387878080601f016020809104026020016040519081016040528093929190818152602001838380828437600081840152601f19601f82011690508083019250505050505050611137565b610c9e576040517f08c379a0000000000000000000000000000000000000000000000000000000008152600401610c959061218c565b60405180910390fd5b610cb28160006112fd90919063ffffffff16565b15610cf2576040517f08c379a0000000000000000000000000000000000000000000000000000000008152600401610ce99061221e565b60405180910390fd5b80925050509695505050505050565b6000610d0c83610ef6565b15610d4c576040517f08c379a0000000000000000000000000000000000000000000000000000000008152600401610d439061228a565b60405180910390fd5b6001600560008673ffffffffffffffffffffffffffffffffffffffff1673ffffffffffffffffffffffffffffffffffffffff1681526020019081526020016000206000828254610d9c919061200e565b92505081905550836003600085815260200190815260200160002060006101000a81548173ffffffffffffffffffffffffffffffffffffffff021916908373ffffffffffffffffffffffffffffffffffffffff16021790555081600460008581526020019081526020016000209081610e159190612456565b50828473ffffffffffffffffffffffffffffffffffffffff168673ffffffffffffffffffffffffffffffffffffffff167fddf252ad1be2c89b69c2b068fc378daa952ba7f163c4a11628f55a4df523b3ef60405160405180910390a4829050949350505050565b6000600882901c9050600060ff83166001901b9050808460000160008481526020019081526020016000206000828254179250508190555050505050565b6000610eef8260085433604051602001610ed49190612570565b60405160208183030381529060405280519060200120611339565b9050919050565b60008073ffffffffffffffffffffffffffffffffffffffff166003600084815260200190815260200160002060009054906101000a900473ffffffffffffffffffffffffffffffffffffffff1673ffffffffffffffffffffffffffffffffffffffff1614159050919050565b6000600882901c9050600060ff83166001901b905080198460000160008481526020019081526020016000206000828254169250508190555050505050565b6000610fac82610475565b90506001600560008373ffffffffffffffffffffffffffffffffffffffff1673ffffffffffffffffffffffffffffffffffffffff1681526020019081526020016000206000828254610ffe919061258b565b925050819055506003600083815260200190815260200160002060006101000a81549073ffffffffffffffffffffffffffffffffffffffff021916905560046000838152602001908152602001600020600061105a91906116e6565b81600073ffffffffffffffffffffffffffffffffffffffff168273ffffffffffffffffffffffffffffffffffffffff167fddf252ad1be2c89b69c2b068fc378daa952ba7f163c4a11628f55a4df523b3ef60405160405180910390a45050565b6000807fe76a195fbe43f0eaa611595069f780493db2202a1cc4b2d7d44b47069812998a868686866040516110f09291906125fe565b604051809103902060405160200161110b9493929190612617565b60405160208183030381529060405280519060200120905061112c81611350565b915050949350505050565b6000806000611146858561136a565b915091506000600481111561115e5761115d61265c565b5b8160048111156111715761117061265c565b5b1480156111a957508573ffffffffffffffffffffffffffffffffffffffff168273ffffffffffffffffffffffffffffffffffffffff16145b156111b9576001925050506112f6565b6000808773ffffffffffffffffffffffffffffffffffffffff16631626ba7e60e01b88886040516024016111ee9291906126e0565b604051602081830303815290604052907bffffffffffffffffffffffffffffffffffffffffffffffffffffffff19166020820180517bffffffffffffffffffffffffffffffffffffffffffffffffffffffff83818316178352505050506040516112589190612741565b600060405180830381855afa9150503d8060008114611293576040519150601f19603f3d011682016040523d82523d6000602084013e611298565b606091505b50915091508180156112ab575060208151145b80156112ef5750631626ba7e60e01b7bffffffffffffffffffffffffffffffffffffffffffffffffffffffff1916818060200190518101906112ed919061276d565b145b9450505050505b9392505050565b600080600883901c9050600060ff84166001901b9050600081866000016000858152602001908152602001600020541614159250505092915050565b60008261134685846113bb565b1490509392505050565b600061136361135d611411565b8361152b565b9050919050565b60008060418351036113ab5760008060006020860151925060408601519150606086015160001a905061139f8782858561155e565b945094505050506113b4565b60006002915091505b9250929050565b60008082905060005b8451811015611406576113f1828683815181106113e4576113e361279a565b5b602002602001015161166a565b915080806113fe906127c9565b9150506113c4565b508091505092915050565b60007f000000000000000000000000000000000000000000000000000000000000000073ffffffffffffffffffffffffffffffffffffffff163073ffffffffffffffffffffffffffffffffffffffff1614801561148d57507f000000000000000000000000000000000000000000000000000000000000000046145b156114ba577f00000000000000000000000000000000000000000000000000000000000000009050611528565b6115257f00000000000000000000000000000000000000000000000000000000000000007f00000000000000000000000000000000000000000000000000000000000000007f0000000000000000000000000000000000000000000000000000000000000000611695565b90505b90565b60008282604051602001611540929190612889565b60405160208183030381529060405280519060200120905092915050565b6000807f7fffffffffffffffffffffffffffffff5d576e7357a4501ddfe92f46681b20a08360001c1115611599576000600391509150611661565b601b8560ff16141580156115b15750601c8560ff1614155b156115c3576000600491509150611661565b6000600187878787604051600081526020016040526040516115e894939291906128dc565b6020604051602081039080840390855afa15801561160a573d6000803e3d6000fd5b505050602060405103519050600073ffffffffffffffffffffffffffffffffffffffff168173ffffffffffffffffffffffffffffffffffffffff160361165857600060019250925050611661565b80600092509250505b94509492505050565b60008183106116825761167d82846116cf565b61168d565b61168c83836116cf565b5b905092915050565b600083838346306040516020016116b0959493929190612921565b6040516020818303038152906040528051906020012090509392505050565b600082600052816020526040600020905092915050565b5080546116f290611d6c565b6000825580601f106117045750611723565b601f0160209004906000526020600020908101906117229190611726565b5b50565b5b8082111561173f576000816000905550600101611727565b5090565b6000604051905090565b600080fd5b600080fd5b60007fffffffff0000000000000000000000000000000000000000000000000000000082169050919050565b61178c81611757565b811461179757600080fd5b50565b6000813590506117a981611783565b92915050565b6000602082840312156117c5576117c461174d565b5b60006117d38482850161179a565b91505092915050565b60008115159050919050565b6117f1816117dc565b82525050565b600060208201905061180c60008301846117e8565b92915050565b600081519050919050565b600082825260208201905092915050565b60005b8381101561184c578082015181840152602081019050611831565b60008484015250505050565b6000601f19601f8301169050919050565b600061187482611812565b61187e818561181d565b935061188e81856020860161182e565b61189781611858565b840191505092915050565b600060208201905081810360008301526118bc8184611869565b905092915050565b6000819050919050565b6118d7816118c4565b82525050565b60006020820190506118f260008301846118ce565b92915050565b611901816118c4565b811461190c57600080fd5b50565b60008135905061191e816118f8565b92915050565b60006020828403121561193a5761193961174d565b5b60006119488482850161190f565b91505092915050565b600073ffffffffffffffffffffffffffffffffffffffff82169050919050565b600061197c82611951565b9050919050565b61198c81611971565b82525050565b60006020820190506119a76000830184611983565b92915050565b6119b681611971565b81146119c157600080fd5b50565b6000813590506119d3816119ad565b92915050565b6000602082840312156119ef576119ee61174d565b5b60006119fd848285016119c4565b91505092915050565b600080fd5b600080fd5b600080fd5b60008083601f840112611a2b57611a2a611a06565b5b8235905067ffffffffffffffff811115611a4857611a47611a0b565b5b602083019150836001820283011115611a6457611a63611a10565b5b9250929050565b60008083601f840112611a8157611a80611a06565b5b8235905067ffffffffffffffff811115611a9e57611a9d611a0b565b5b602083019150836001820283011115611aba57611ab9611a10565b5b9250929050565b600080600080600060608688031215611add57611adc61174d565b5b6000611aeb888289016119c4565b955050602086013567ffffffffffffffff811115611b0c57611b0b611752565b5b611b1888828901611a15565b9450945050604086013567ffffffffffffffff811115611b3b57611b3a611752565b5b611b4788828901611a6b565b92509250509295509295909350565b7f4e487b7100000000000000000000000000000000000000000000000000000000600052604160045260246000fd5b611b8e82611858565b810181811067ffffffffffffffff82111715611bad57611bac611b56565b5b80604052505050565b6000611bc0611743565b9050611bcc8282611b85565b919050565b600067ffffffffffffffff821115611bec57611beb611b56565b5b602082029050602081019050919050565b6000819050919050565b611c1081611bfd565b8114611c1b57600080fd5b50565b600081359050611c2d81611c07565b92915050565b6000611c46611c4184611bd1565b611bb6565b90508083825260208201905060208402830185811115611c6957611c68611a10565b5b835b81811015611c925780611c7e8882611c1e565b845260208401935050602081019050611c6b565b5050509392505050565b600082601f830112611cb157611cb0611a06565b5b8135611cc1848260208601611c33565b91505092915050565b600060208284031215611ce057611cdf61174d565b5b600082013567ffffffffffffffff811115611cfe57611cfd611752565b5b611d0a84828501611c9c565b91505092915050565b611d1c81611bfd565b82525050565b6000602082019050611d376000830184611d13565b92915050565b7f4e487b7100000000000000000000000000000000000000000000000000000000600052602260045260246000fd5b60006002820490506001821680611d8457607f821691505b602082108103611d9757611d96611d3d565b5b50919050565b7f6f776e65724f663a20746f6b656e20646f65736e277420657869737400000000600082015250565b6000611dd3601c8361181d565b9150611dde82611d9d565b602082019050919050565b60006020820190508181036000830152611e0281611dc6565b9050919050565b7f62616c616e63654f663a2061646472657373207a65726f206973206e6f74206160008201527f2076616c6964206f776e65720000000000000000000000000000000000000000602082015250565b6000611e65602c8361181d565b9150611e7082611e09565b604082019050919050565b60006020820190508181036000830152611e9481611e58565b9050919050565b7f74616b653a2063616e6e6f742074616b652066726f6d2073656c660000000000600082015250565b6000611ed1601b8361181d565b9150611edc82611e9b565b602082019050919050565b60006020820190508181036000830152611f0081611ec4565b9050919050565b7f4e6f742056616c69642070726f6f6620666f7220416464726573730000000000600082015250565b6000611f3d601b8361181d565b9150611f4882611f07565b602082019050919050565b60006020820190508181036000830152611f6c81611f30565b9050919050565b7f546f6b656e204c696d6974205265616368656400000000000000000000000000600082015250565b6000611fa960138361181d565b9150611fb482611f73565b602082019050919050565b60006020820190508181036000830152611fd881611f9c565b9050919050565b7f4e487b7100000000000000000000000000000000000000000000000000000000600052601160045260246000fd5b6000612019826118c4565b9150612024836118c4565b925082820190508082111561203c5761203b611fdf565b5b92915050565b7f746f6b656e5552493a20746f6b656e20646f65736e2774206578697374000000600082015250565b6000612078601d8361181d565b915061208382612042565b602082019050919050565b600060208201905081810360008301526120a78161206b565b9050919050565b7f756e65717569703a2073656e646572206d757374206265206f776e6572000000600082015250565b60006120e4601d8361181d565b91506120ef826120ae565b602082019050919050565b60006020820190508181036000830152612113816120d7565b9050919050565b7f5f73616665436865636b41677265656d656e743a20696e76616c69642073696760008201527f6e61747572650000000000000000000000000000000000000000000000000000602082015250565b600061217660268361181d565b91506121818261211a565b604082019050919050565b600060208201905081810360008301526121a581612169565b9050919050565b7f5f73616665436865636b41677265656d656e743a20616c72656164792075736560008201527f6400000000000000000000000000000000000000000000000000000000000000602082015250565b600061220860218361181d565b9150612213826121ac565b604082019050919050565b60006020820190508181036000830152612237816121fb565b9050919050565b7f6d696e743a20746f6b656e494420657869737473000000000000000000000000600082015250565b600061227460148361181d565b915061227f8261223e565b602082019050919050565b600060208201905081810360008301526122a381612267565b9050919050565b60008190508160005260206000209050919050565b60006020601f8301049050919050565b600082821b905092915050565b60006008830261230c7fffffffffffffffffffffffffffffffffffffffffffffffffffffffffffffffff826122cf565b61231686836122cf565b95508019841693508086168417925050509392505050565b6000819050919050565b600061235361234e612349846118c4565b61232e565b6118c4565b9050919050565b6000819050919050565b61236d83612338565b6123816123798261235a565b8484546122dc565b825550505050565b600090565b612396612389565b6123a1818484612364565b505050565b5b818110156123c5576123ba60008261238e565b6001810190506123a7565b5050565b601f82111561240a576123db816122aa565b6123e4846122bf565b810160208510156123f3578190505b6124076123ff856122bf565b8301826123a6565b50505b505050565b600082821c905092915050565b600061242d6000198460080261240f565b1980831691505092915050565b6000612446838361241c565b9150826002028217905092915050565b61245f82611812565b67ffffffffffffffff81111561247857612477611b56565b5b6124828254611d6c565b61248d8282856123c9565b600060209050601f8311600181146124c057600084156124ae578287015190505b6124b8858261243a565b865550612520565b601f1984166124ce866122aa565b60005b828110156124f6578489015182556001820191506020850194506020810190506124d1565b86831015612513578489015161250f601f89168261241c565b8355505b6001600288020188555050505b505050505050565b60008160601b9050919050565b600061254082612528565b9050919050565b600061255282612535565b9050919050565b61256a61256582611971565b612547565b82525050565b600061257c8284612559565b60148201915081905092915050565b6000612596826118c4565b91506125a1836118c4565b92508282039050818111156125b9576125b8611fdf565b5b92915050565b600081905092915050565b82818337600083830152505050565b60006125e583856125bf565b93506125f28385846125ca565b82840190509392505050565b600061260b8284866125d9565b91508190509392505050565b600060808201905061262c6000830187611d13565b6126396020830186611983565b6126466040830185611983565b6126536060830184611d13565b95945050505050565b7f4e487b7100000000000000000000000000000000000000000000000000000000600052602160045260246000fd5b600081519050919050565b600082825260208201905092915050565b60006126b28261268b565b6126bc8185612696565b93506126cc81856020860161182e565b6126d581611858565b840191505092915050565b60006040820190506126f56000830185611d13565b818103602083015261270781846126a7565b90509392505050565b600061271b8261268b565b61272581856125bf565b935061273581856020860161182e565b80840191505092915050565b600061274d8284612710565b915081905092915050565b60008151905061276781611c07565b92915050565b6000602082840312156127835761278261174d565b5b600061279184828501612758565b91505092915050565b7f4e487b7100000000000000000000000000000000000000000000000000000000600052603260045260246000fd5b60006127d4826118c4565b91507fffffffffffffffffffffffffffffffffffffffffffffffffffffffffffffffff820361280657612805611fdf565b5b600182019050919050565b600081905092915050565b7f1901000000000000000000000000000000000000000000000000000000000000600082015250565b6000612852600283612811565b915061285d8261281c565b600282019050919050565b6000819050919050565b61288361287e82611bfd565b612868565b82525050565b600061289482612845565b91506128a08285612872565b6020820191506128b08284612872565b6020820191508190509392505050565b600060ff82169050919050565b6128d6816128c0565b82525050565b60006080820190506128f16000830187611d13565b6128fe60208301866128cd565b61290b6040830185611d13565b6129186060830184611d13565b95945050505050565b600060a0820190506129366000830188611d13565b6129436020830187611d13565b6129506040830186611d13565b61295d60608301856118ce565b61296a6080830184611983565b969550505050505056fea2646970667358221220573175c5ff2d8557ef1516dbf09e063cf28d6c8321bb2d7cce4aacf260886a5364736f6c63430008100033a2646970667358221220d4781cafd1103a55151254a99fc4c4dcf46b4f371251e21ecb6f804de1fcd18364736f6c63430008100033",
  "devdoc": {
    "kind": "dev",
    "methods": {
      "owner()": {
        "details": "Returns the address of the current owner."
      },
      "renounceOwnership()": {
        "details": "Leaves the contract without owner. It will not be possible to call `onlyOwner` functions anymore. Can only be called by the current owner. NOTE: Renouncing ownership will leave the contract without an owner, thereby removing any functionality that is only available to the owner."
      },
      "transferOwnership(address)": {
        "details": "Transfers ownership of the contract to a new account (`newOwner`). Can only be called by the current owner."
      }
    },
    "version": 1
  },
  "userdoc": {
    "kind": "user",
    "methods": {},
    "version": 1
  },
  "storageLayout": {
    "storage": [
      {
        "astId": 7,
        "contract": "contracts/SoulboundFactory.sol:SoulboundFactory",
        "label": "_owner",
        "offset": 0,
        "slot": "0",
        "type": "t_address"
      },
      {
        "astId": 3179,
        "contract": "contracts/SoulboundFactory.sol:SoulboundFactory",
        "label": "proxy",
        "offset": 0,
        "slot": "1",
        "type": "t_address"
      }
    ],
    "types": {
      "t_address": {
        "encoding": "inplace",
        "label": "address",
        "numberOfBytes": "20"
      }
    }
  }
}